:100000000C9488070C94CF070C94CF070C94CF075F
:100010000C94CF070C94CF070C94CF070C94CF0708
:100020000C94CF070C94CF070C947A250C944D2692
:100030000C94E21C0C94CF070C94CF070C94CF07C0
:100040000C94CF070C94CF070C94CF070C94CF07D8
:100050000C94CF070C942F1D0C94CF070C94CF0752
:100060000C94CF070C94CF070C94CF070C94CF07B8
:100070000C94CF070C94CF070C94CF070C94CF07A8
:100080000C94CF070C94CF070C94CF070C94CF0798
:100090000C94CF070C94CF070C94CF070C94CF0788
:1000A0000C94CF070C94CF070C94CF07494E4954BA
:1000B00020454E4445440A005354415254494E474A
:1000C00020494E54490A0003A6681E7D107E7E5FBB
:1000D0001CB8F2470C7B744B148B7566510B8C76F5
:1000E000744B14AAD60F9CBAF66E3FDD38D5028049
:1000F0009B826D5813A4ABB5C910A2C60A7F5D19C7
:1001000091A0A3CEEB3EC9F16042E74CFB746A5666
:100110002EBFDD38D3058892A6CEFF5D38D1CFEF54
:1001200058CB6548F03585A9B28F5EF38094977EF1
:100130007597877313B08A69D40ADEC1795936DBA3
:100140009DD6B8156FCE3C72324588DF6CA56DE840
:100150007696147420DCF4FA376A2732E329BFC498
:10016000C7069D58E7877C2E9F6E49075D23645420
:10017000836ECBB777F72B6E0F2E6612605565FC3A
:1001800043B358735BE867044302DEB389A06D3A5A
:100190002779645B0C169E66B18B870C5DF2B63DC9
:1001A00071DF42038A068DEF1DA8965CED31615C1C
:1001B000A134F68C08603307003E79951B437FFE1F
:1001C000B6A6D49D7672BFADC015E83731A3726371
:1001D000521D1C5D511BE1A9ED60323EA950285310
:1001E0000659E2FCE702643921564AA5408081D5D0
:1001F0005A607B6884F1E0B1B65BDFA81D6D6520B5
:10020000C0A2B9D9BB00A6DB8B015391FEC45185B6
:10021000B0967FFD51DD1403672E751C76D36EDD1D
:10022000995576E5AB23FC4AD5C6E82ECA8AB3F6C3
:100230008C6CB0E9F2E79E6941EDF16DD286D87E13
:10024000CB5D476C856A23ED204093B420C7A5C9D8
:10025000AF0315AC19E52A36DF6DC58C8007CE9249
:100260000CD806620FDD48461A53C78A8C5D5DB410
:10027000A102D3A9B8F3948F3FE554D41165B25EBF
:10028000090B81E375A78981396C46F6069F273BE8
:10029000B62D5F1D4BD47B1D617489E4E3BD981BB3
:1002A000C4513BA4FAE092F7BEF24DBBFFAD4F6DD7
:1002B00068C27940AA9B8F0C324B5F3EAB5998B312
:1002C000F51DAC5EBC78D3016C64152FD871A62DDA
:1002D00045E12242E44E043C7DF44021B46705A888
:1002E000E2F372874C7DD91B6597F3C2E3E4C8D271
:1002F000DEF6EFDCBB44085EE2452701B0F643E7DB
:100300003AF6DC9DEDF3C50CB89C983AD836EE96DB
:100310007267E78191D5050AE082D58FE8F9B0C907
:10032000CF93E704C5BC2B43567EE8677CE5FB49C9
:10033000AD5E9F2513DE6E6EE9F1EC870B59817679
:100340008476B324AF30FD278BABD8008B9B0CD2C7
:10035000B24E5E9D1D96010067C15F0220FD456A99
:1003600001605845CA4721905AC443261AD7A54A66
:10037000B25D2B3549FBA51792211E939667A27E8D
:10038000367ADE5FBE7A589DF878A3FAC8D517F0A2
:1003900021978C80B54B3BBDBB4121A85067F7E747
:1003A0001980108ECE04183F516B77D89E16AFEC93
:1003B000EF48164D9E8538183ED42887602AF67F70
:1003C00009866F9C3C3AFFABD061A2970D71947E79
:1003D000FDB98002896AB3846C2A7762BE0BF4AFE0
:1003E000AC7B7C8ECA01BA717894FDB539A44D2FCF
:1003F00078CFCA920C1A99484C1196B54E4128E410
:10040000A6FE4B7291E7D4DD9F12E62938CE45AEA9
:1004100002B824AEBDE9660862A22C2B00E223D903
:10042000C448E4D3ACBB34C7F0E34FB930EAA212FE
:10043000F1302C36DE48F2B04C433F2E58E420E336
:1004400058CD3122F0A22AE619905586F65579D179
:10045000D7462FC0DC99E8F36ADF7FEB244A1E5AA7
:1004600075DE2F5C19610353546A3B1870B64FF167
:100470009C0A599D1992658C83142D448A75A9F59F
:1004800090D2664EFA690F5B0B9865C81142597F8E
:10049000DD1B7517314C7558EB58637DF2A6C26EA3
:1004A000B73F3E5E47ADB704E805F8B2CF19F3D2C7
:1004B00085FE3E3EB162082C10070D739017FA9B23
:1004C000560275F951E0E91A7B9FB3F398B81C9C6A
:1004D000E1D535AEC860481109946BD08B15BC05C9
:1004E00068D3548A51395C4276CED8AD8930C9057B
:1004F0001CCC943F0F906F722D85649AB923F90B31
:10050000C37C390F970797DA5848330523B882E838
:10051000D35389AF338022840C955C67B8770C5C29
:10052000A25F3D580F27F32FAE48BD0B6F54FB67FA
:100530004CEA3227F1FAE2B0EC0B15B470F65CDD50
:100540007160C3C1A83265AC7A7741E5A96B1181AE
:10055000FA348DFBC1806EC4603007D48B67BDAAAE
:100560008C9C64ACDB0B248B636FE6BCE733A44A42
:100570004CA79F4353D2BB8F43C73D78683FA53DEF
:10058000CA6984A6972DC07D3134551D07B15F40DF
:100590005C93B0BC7CB0BCE712EE6B2BD34D6770A4
:1005A0003A9AF23C7C81FAD7D9909181B8B1F3485C
:1005B0006A264F0CCEB09EFD4A3AAFAC5B3FBF44BB
:1005C0005AA3191E4BE7366AD720AED77D3BE7FF0B
:1005D0003A862ED04A3EAF9F8E01BFF84FC1E86FDA
:1005E00074E145D3F7046A4B9DEC332776D7C5E118
:1005F000B03B0E23ECF086D21ABF3D0462B36CB25E
:10060000EB1705A60A8A7E831CB63709C60B703C19
:10061000B59381D893A05F1E08E2C6E5C972F1F1D7
:10062000C1EDD5589383F865672E0DA9F16412E6E4
:100630004CEA153F8C1AB6BFF6B9523509B0E6F749
:10064000CDF1A5AA81D1816FB4A9661FFC48C0B6BF
:10065000D18B062FF6EF1F0AE6CE3A4A55BF6DF949
:100660004DD408454BC366199210E1178E28911698
:10067000BF3CEEA3A6999210E1F6CCACB8650B4353
:1006800066F8E3E53F2489475D7843D06117BD5B99
:10069000645408455993F6958A4151624B51023092
:1006A00073C787C54BA2970FE8465F7E2AE13020CB
:1006B000B0FAE7CE6142576E21F37AECE325C72505
:1006C000F367A757400002CF1C807767BD70A11960
:1006D000923175932727B682E4EB1D7848E7A55E33
:1006E00057EF6428641BF611B2039DB9180227F76F
:1006F000BE9D55FC00D2C7AEAD0BC5E9424148D8FE
:1007000032CFF60FF5BC97C6994776BD89060F63C1
:100710000C51D45EEA48A8A2561C798486408841D0
:100720007655FCC2D7FDC9C7806135A74320F7EBDA
:100730006C6613B0EC02753E4BAFB95D40DAD66E15
:100740002D3954C29535542572E178B8EBC116584D
:100750000F9C9BB4EA37EC3B11BAD58AA9E3980009
:10076000511C14E04096E5E9F22122B1236078D3D0
:1007700017F87AA5A8BA20D3151E32E45E1548AE44
:10078000A9E5B833ECE8A242ACBF1084538719B492
:100790005F764D019D5674D95C97E788EA3ABFDCD5
:1007A0004C338A16B95BFAD842A7BB3C0427784978
:1007B000812A5A7D7C23A8BAF79A9FD2663E383C9C
:1007C00075F9D13026306E5A6EDC6A693250334783
:1007D0009EA4A86466F08AE4FD276F51258B4374BC
:1007E000C98EBD8831BEEC65D2CB8D5A1348168CAC
:1007F000610B11F6C666AEC3CC0CD2E19F82413FBD
:1008000056F973EFDC3050CFB67FBCD0B310AB24B9
:10081000E4ECAD188C392D304CC5400DF6ACD61833
:100820005D96BF5F71759622970F02946EA6AE6DAE
:100830008F1ECA129B2A1CCEA9EEFD128EFCED095A
:1008400033BAF41A15F69D8716437C7857E144C9EC
:10085000EB1F584DC149115CB211A85516F1C65095
:10086000E98789F6CFD89C51A7BC5B316D4D51D03B
:100870004CBC0D582D7B887AF98ED6404DBBBEC43A
:10088000E507FCD97B6DA642578F02944FE42A6599
:10089000E2195A50E125654A60C2CDA8EC052E87C1
:1008A0007B95B74FA00B1B4A7F92C890EE891E1014
:1008B000D285E49F63C812BB4EB8CF0AEC184EE64F
:1008C0007CB33326C71FD20423EA070C5F90BDA771
:1008D0006A0F4AD610013C12292E96C04DBBBEE5C8
:1008E000A783D56A3CE35BB8F25C6D1FA6F31224C4
:1008F000F6D63B1014090782E8306A99DC95019C12
:10090000D4683BCA9812AB7725157D10324598CD37
:100910007ADF718A75C11CD46825EBBB54276F2A16
:10092000F7B9980327DE24A8BB98C284FF9B51D84F
:100930005350DAF588AA872FAED6EA6BDEC8D7A760
:10094000286581E8B23B1D4F758F9F7A748EC15F19
:100950009AA89DFA03A3719B376DD50BF5E1A11BF6
:10096000016AC667AAEA2C9DA4D26EFCDE2E7F9493
:1009700069E54AE001483C6BF71EB60B5FF92E07AC
:10098000C5E8AE371BBC3CD8D50B919E8024F5063C
:100990000C0E9807962D19DC5893CCFB4EEBBD0F2F
:1009A000F5AF01FAF17C438CB8563EBE774E2BF77B
:1009B000BBB74547CDCCA64C727B6A2A701307FDA6
:1009C000B89C983AD823675B34D5140CAB771FF8E2
:1009D0003D5A9F92B72CAD31DE6107B36BF73815E6
:1009E0009546144853695266076D83718A672520BE
:1009F0000FFED702D76E2CD21A0A5DFD0F74E3A446
:100A000036079ADFD479BFEF59C04452879A6E1DDA
:100A10000EEEDE2E1AA98F3AC9BAEC99782D556BD5
:100A200014C206D5FC93534D118CF8FA797CA66458
:100A3000AE61B87B9456A639789AE5C7DF18632370
:100A40009CFA66BBB75A274CD1A18322B3524935D1
:100A5000B022835912001698DDADC294F9D37B649D
:100A60007F443E3C8B9A839C696BE4DF9FED541F6F
:100A7000E55D7A0582B3DDEFFC5396B02C5AF8DFC2
:100A80009C8B164EDFDA4D090969500365D87370E7
:100A9000E886BFBB35CEB246CB02005BB4E2C68F60
:100AA0002F98AF874B4845EDCC1DE658D6F2502520
:100AB0009F52C7CB8A179D5BE5C8D772B752B2C4A5
:100AC00098E37A173EC660A797B0CF188153844C3D
:100AD000D51732031339510910E377494F6201BF2B
:100AE0008C9AE0419E897436F996862E961C4AB7F8
:100AF0002B4A97BC9940A3E03DC8AD2FDF4F2CC4D3
:100B000069829F9B810C615CA59D8C89C02CB44A35
:100B1000334EEBA25640C0C246AF6AFC67D1805E3E
:100B2000C56D8443273F5515966AA0A5DAB7FFB770
:100B3000756E4C49919D22A346EAED9A00E232C3BC
:100B4000D6A9712055A319EDF84FA7129C6687AF5F
:100B50004EB7F0DBBFEFF0F6AFEADA09FEDE385C45
:100B6000A5A2DF9945A8E4E792AC67AA4FBF773EFC
:100B7000A24049224A1E3BAA707F95AF374BFC9991
:100B8000E2E0BAD734CE55885B841B57C480035348
:100B9000C92F93044DD596E570A66E635D9D6CDB01
:100BA000020AA9DA8B53DCD99AC5942C91922ADED9
:100BB000BB8B13B9199664CCF26439B77549E986D1
:100BC000C28662D924D3813549FCA0A5A0930564CF
:100BD000B41A57CE0C900227C57A2B5DAE3ED5DDF8
:100BE000107C14EA3A08AC724E903D3B7C862EEBAA
:100BF000D40670E6C7FB5FBD18F411A41A93C3BEF8
:100C0000D9FB26482F373CD003471AF76219245CDA
:100C1000F4A892207AF29E2AC595A2FBA4EA85D870
:100C200056B770D16030A5308270DC7A658A363F65
:100C30005B0CAE547CD357847B3A651881EE059BE0
:100C4000444DB8DAA2A1C915D373030E43E98E153A
:100C5000F9BEC6C58AE5C01EC2379E2A26A5A0BD1C
:100C6000245FB9C1AB3448B95D98B46518F3631912
:100C7000441B1116FFDCF17908860F529873C49259
:100C8000902B4709D0436C2F20EBDCDAC5087B940E
:100C900042306AC7DA8CC376A7A5CC6213006031F4
:100CA00058449BF56414F511C5545283D47301164E
:100CB0000EB37A29693556D4EE8A17A299249CD7A7
:100CC0008FDB55B53E0600140044454255473A2097
:100CD00064697361626C65642E0A0044454255473D
:100CE0003A20656E61626C65642E0A000A00253048
:100CF0003862003A200025303258000A722F6320F3
:100D000030313233343536370A000A002530325854
:100D100020006B6579626F6172645F7265706F72DB
:100D2000743A20000A0025303258006B6579626FF2
:100D30006172645F7365745F6C65643A2000290AB0
:100D4000002575002F002575005D28002564002012
:100D500000256400200025640020002564007C003C
:100D600025303258006D6F7573656B6579205B6255
:100D7000746E7C782079207620685D287265702FEB
:100D800061636C293A205B005B735D004B6579629F
:100D90006F6172642073746172742E0A005B575D18
:100DA000005B535D005B525D005B445D005B435D37
:100DB000000403300000000C034100420061006C9D
:100DC000006C0000002603520069006300680061A7
:100DD0000072006400200053007500740068006514
:100DE0000072006C0061006E0064000000040309E2
:100DF0000409025B00030100A0FA090400000103DA
:100E000001010009211101000122400007058103B1
:100E100008000A0904010001030000000921110172
:100E20000001224F000705820320000A0904020086
:100E30000203000000092111010001222200070520
:100E400083032000010705030320000112011001A4
:100E500000000008EDFEF0C20100010203010631AE
:100E6000FF0974A1010975150026FF00952075087A
:100E700081020976150026FF00952075089102C0B1
:100E800005010902A10185020901A1000509190155
:100E90002905150025019505750181029501750348
:100EA00081010501093009311581257F95027508F9
:100EB000810609381581257F950175088106050C85
:100EC0000A38021581257F950175088106C0C00585
:100ED000010906A101050719E029E715002501957B
:100EE000087501810295017508810105071900291E
:100EF000FF150026FF0095067508810005081901F9
:100F00002905950575019102950175039101C000B0
:100F100011241FBECFEFDAE0DEBFCDBF04B603FE63
:100F200027C08091C8019091C901A091CA01B091D8
:100F3000CB018730904BA740B04BD1F41092C80141
:100F40001092C9011092CA011092CB0114BE84B74D
:100F5000877F84BF0FB6F894A89580916000886160
:100F600080936000109260000FBEE0E0F8E3099506
:100F700011E0A0E0B1E0ECEFF0E502C005900D92C9
:100F8000A632B107D9F721E0A6E2B1E001C01D9277
:100F9000A83CB207E1F70E94B1220C947C280C9483
:100FA0000000FF93EF93E0912601F0912701309725
:100FB00009F00995EF91FF910895FC01859180302A
:100FC00011F0EFDFFBCF0895FF27E0E230E247FFAB
:100FD0000CC0419597FF09C0EDE260957095809532
:100FE0009095611D711D811D911D27FF02C02195E6
:100FF00030E350E2AA27660F771F881F991FAA1FA8
:10100000A41710F0A41B63955A95A9F7AA3008F00D
:10101000A95FA05DAF93F3956115710581059105F9
:1010200041F7ED3211F4EF93F395F21718F43F9373
:10103000F395FBCF8F91B5DFFA95E1F70895E9912C
:10104000F9918591803021F0853219F0AADFF9CF2E
:10105000089520E0E89455915532C1F3503311F4CE
:10106000689455915A3348F4505390F3220F022E4E
:10107000220F220F200D250FF4CF0EF42195899118
:101080009991533619F3533729F1533559F1BC016E
:1010900088279927E8945C3621F48991999168947E
:1010A0005591543639F446EF7EF077FF0DC08FEF3F
:1010B0009FEF0AC055374AE039F0583540E121F03A
:1010C000523642E009F00895FF93EF937DDFEF91F0
:1010D000FF91B7CFFF93EF93FC0181918030B9F37B
:1010E00060DFFBCFFF93EF9368DFF1CFDF93CF9308
:1010F000CDB7DEB72596A3DFCF91DF91089528E025
:1011000030E043E060E087EF0C94D30FCF93DF93A0
:10111000D82FC62F0E947F088D2F80680E944C1008
:101120008C2F0E944C108AE68A95F1F700C08FE858
:1011300091E00197F1F700C00000DF91CF910C948E
:101140007C10CF93C82F0E947F088C2F8F770E942E
:101150004C100E946410C82F85E08A95F1F70000BA
:1011600085E68A95F1F700000E947C108C2FCF91C4
:101170000895CF93DF938091930180FF04C088EBA3
:1011800090E00E94DD070E94CB0F0E947F080E9422
:101190007C106AE58AE30E9486082FEF80E792E0E0
:1011A000215080409040E1F700C0000082E00E94A2
:1011B000A10883E00E94A10884E00E94A10885E0C4
:1011C0000E94A10886E00E94A10862E089E30E94D3
:1011D00086086DE183E10E9486088FE39CE9019710
:1011E000F1F700C0000068E183E10E9486080E94D8
:1011F0007F0882EE0E944C1090E59A95F1F7D0E0BE
:10120000C0E0FE01E953FF4F84910E944C1020E59D
:101210002A95F1F72196CE3F8BE0D80791F70E94EF
:101220007C108FE39CE90197F1F700C0000080E299
:101230000E94A108682F607F80E20E9486088FE9E3
:101240009FE00197F1F700C0000060E18FE00E948D
:1012500086089FEF21EE84E0915020408040E1F726
:1012600000C000008091930180FF06C08CEA90E0EE
:10127000DF91CF910C94DD07DF91CF910895EF922C
:10128000FF920F931F93CF93DF9300D000D000D035
:101290001F92CDB7DEB70E947F0880E50E944C10F8
:1012A0008E010F5F1F4F7E0188E0E80EF11C0E9447
:1012B0006410F80181938F01EE16FF06C1F780914B
:1012C000AF019091B0012B813C81820F931F9093CD
:1012D000B0018093AF018091B1019091B2012D8155
:1012E0003E81820F931F9093B2018093B101898157
:1012F0008093280127960FB6F894DEBF0FBECDBFAE
:10130000DF91CF911F910F91FF90EF900C947C1083
:10131000CF93DF9300D000D000D0CDB7DEB70E94CE
:101320003F090E94520D29833A834B835C836D836E
:101330007E8380912801882371F18091AF01909183
:10134000B00181389F4FC4F18091AF019091B001FD
:10135000803891058CF56091AF017091B001619575
:101360008091B1019091B20181389F4F3CF1809101
:10137000B1019091B2018038910504F58091B101DD
:101380009091B201782F49815A818D819E810E946E
:10139000730D0E94470D1092B0011092AF01109290
:1013A000B2011092B10126960FB6F894DEBF0FBEBF
:1013B000CDBFDF91CF9108956FE7D1CF7FE7E3CF26
:1013C000809193018160886080939301089581E00A
:1013D000089581E008950C94E90908950C94ED09AD
:1013E0001F93CF93DF9300D000D01F92CDB7DEB70D
:1013F00049835A836B833091400189819A813111ED
:101400001DC06623B9F02223A9F00E943E1A182FAE
:10141000682F89819A810E94E81969817A81812FD8
:101420000F900F900F900F900F90DF91CF911F9121
:101430000C94B60A0E94151A182FEFCF0E943E1A7C
:1014400069817A81EDCFFC01262F40815181628133
:10145000738184810C94F009CF93DF93EC0160E0F9
:101460000E94230ABE01DF91CF910C94EE090E94E5
:10147000A21B811102C00E943F1C0C94AC0C0C9466
:10148000AF0C08950C94410A81E008950C94440A2D
:10149000CF93C82F0E94420A8C2FCF910C94460AFA
:1014A00008950E9417150E94500A2FEF84E39CE0D4
:1014B000215080409040E1F700C000000C94551D81
:1014C0000F931F93CF93DF93EC0161E00E94230AF7
:1014D0008C01BE010E94EB09882311F1BE01C801F5
:1014E0000E942A0E8823E1F0BE01C8010E947C0EF2
:1014F0008823B1F0BE01C8010E94A10F882381F0AA
:101500008A81882341F101308CE5180779F00E3D7E
:101510008CE51807E9F001151C45E9F40E94510A11
:1015200080E0DF91CF911F910F91089590919301E9
:10153000892F8E7F90FF81608093930180FF05C08B
:101540008BED9CE00E94DD07EBCF89EC9CE0FACFAD
:101550000E943F1CE5CFCE01DF91CF911F910F91EB
:101560000C94E70990E080E008950895272F280F54
:101570003327331FF901EE0FFF1FE60FF11DEE0FAA
:10158000FF1FEB53F34F859194910895FC01EE0FEB
:10159000FF1FE451F34F859194910895CF93DF930A
:1015A0000E94B60A0E94CD0BEC0181159145F0F521
:1015B000C11580E5D80708F0A1C0CF3FD10509F0DB
:1015C000F0F4C03FD10508F08AC0C03ED10580F4D8
:1015D000C03CD10508F085C0C130D10561F028F0CC
:1015E000CE010497813A910530F0D0E0C0E003C00D
:1015F000C83ED105D0F7CE01DF91CF910895C11536
:1016000020E3D20738F4C11580E2D807A0F3CE0159
:101610009F706AC0C11520E4D20708F06CC0CE01EB
:101620009927D3FF65C0EC01D86CE5CFC11585E5DE
:10163000D80718F5C11524E5D20708F094C0C115E4
:1016400083E5D80708F07BC0C11522E5D20708F46E
:1016500071C0CE018370992721E030E002C0220FD3
:10166000331F8A95E2F7C695C69580E2C89FE001D0
:101670001124C22BD32BDC68BECFC11589E5D80756
:10168000A8F4C11528E5D20708F072C0C11586E597
:10169000D80708F0AACF8C2F0E94680CC82FD0E082
:1016A000DC2FCC27CC27DF71D062A5CFC1152AE56E
:1016B000D20708F462C0CE0190568115904208F01E
:1016C00094CF8D2F8F710E94680CDD27D06290E03F
:1016D000982F882788279F71C82BD92B8CCFD0654E
:1016E0008ACFCE01805C91090E94C60AEC0183CFAB
:1016F000EC01D06C80CFDF70D06A7DCFCE01F4E0FA
:1017000096958795FA95E1F783709C2F937021E069
:1017100030E002C0220F331F9A95E2F73C68382B65
:10172000C695C695C37080E2C89FE0011124C22B04
:10173000D32B61CFDC2FCC27C16FD06A5CCFCE0119
:101740008370992721E030E002C0220F331F8A9571
:10175000E2F7C695C69580E2C89FE0011124C22B2E
:10176000D32BDA6848CFDC2FCC27C46FD06A43CFA5
:10177000DC2FCC27C06FD06A3ECF8C2F8F700E9499
:10178000680C34E0D695C7953A95E1F7CF70D0E074
:10179000DC2FCC27D069C82B2ECF82389105B1F130
:1017A000B0F48133910509F471C048F48932910590
:1017B00009F467C08A32910509F46DC00895853334
:1017C000910509F459C08933910501F10895833ECB
:1017D0009105A9F138F4803E9105F9F0823E91051A
:1017E00049F10895863E9105A9F1873E9105C9F119
:1017F000843E910519F52091BA0121FF1FC0809107
:10180000B90184FD14C087EE90E008952091B901DC
:101810002370A1F080EE90E008952091B90120FDA1
:101820003FC03091BA0130FF09C024FF3CC090E0B6
:1018300080E008952091B90122FDF7CF089520910D
:10184000B90122FD33C03091BA0130FDE3CF24FD50
:10185000EECFF4CF2091B90123FFF0CF24FDE7CFE5
:10186000D2CF2091B90123FD24C03091BA0131FFBC
:10187000EECF84EE90E008952091B90125FD1CC0C3
:1018800008952091B90125FD1AC008952091B9014C
:1018900026FD18C008952091B90126FD16C00895AF
:1018A00089E390E0089583EE90E0089582EE90E061
:1018B000089586EE90E0089589E290E0089585E32A
:1018C00090E008958AE290E0089581E390E0B6CF39
:1018D0009091B90192FF06C0282F28712830F9F4A1
:1018E000877F846093FF06C0282F28712831F1F488
:1018F000877E84612091BA0120FF06C0382F38719D
:101900003830D9F4877F816021FF06C0282F2871E5
:101910002831D1F4877E816194FD877E0895282F38
:1019200024712430F9F68B7F8860DCCF282F247156
:10193000243101F78B7E8861DDCF382F3171313052
:1019400019F78E7F8860E0CF282F2171213121F790
:101950008E7E8861E1CF08950C94AB0C08950C94B1
:10196000AE0CE82FF0E0EC54FE4F808108958BEF31
:101970009CE00E94DD071F921F9286EF9CE09F93E0
:101980008F930E94760883EF9CE00E94DD07809190
:10199000B4010E948A1B1F928F938EEE9CE09F934E
:1019A0008F930E9476088DB79EB708960FB6F8946D
:1019B0009EBF0FBE8DBF8CEE9CE00C94DD0751984E
:1019C000599A5098589A1092B3011092B40181E03C
:1019D0000E94110D0C94370ACF9389B190E0959530
:1019E00087958095909581709927489918C022E035
:1019F000822B9091B301981302C0C0E003C0809382
:101A0000B301C1E02C2F41E064EB71E083EB91E086
:101A10000E94120D0E943F0A8C2FCF91089520E062
:101A2000E7CF0895FF920F931F93CF93DF938C011D
:101A3000F62ED72FC42F222349F081E080932B016B
:101A40000E94141D90932A018093290180912B01FB
:101A50008823A1F08091290190912A010E94201DE4
:101A6000069760F0EF2DFD2FD801D0E0CD01801B4F
:101A7000910B8C179D0744F010922B01DF91CF91B1
:101A80001F910F91FF9008958D918193EFCF8CE27C
:101A900091E00E940311ECE2F1E0128213821482C1
:101AA00015820895CF93DF9300D000D000D0CDB73A
:101AB000DEB786E0ECE2F1E0DE01119601900D92D6
:101AC0008A95E1F729813A814B815C816D817E8124
:101AD00080E090E026960FB6F894DEBF0FBECDBF33
:101AE000DF91CF910895CF93DF9300D000D000D045
:101AF000CDB7DEB749835A836B837C838D839E8306
:101B000086E0FE013196ACE2B1E001900D928A953B
:101B1000E1F726960FB6F894DEBF0FBECDBFDF917A
:101B2000CF910895AF92BF92CF92DF92EF92FF9242
:101B30000F931F93CF93DF937C015B01C42FD22FB0
:101B4000FC0182818823F9F0409334010E94141D26
:101B5000909333018093320180E28C0F883008F03B
:101B60006EC0C77081E001C0880FCA95EAF7DF91A7
:101B7000CF911F910F91FF90EF90DF90CF90BF908A
:101B8000AF900C94A31210913401141340C08091B3
:101B90003201909133010E94201D6C01B701C501F3
:101BA0000E94B617C816D90690F5C0E2CD0F1D17D2
:101BB000B9F080E2810F883040F4177081E001C0F5
:101BC000880F1A95EAF70E94AA12C83058F581E0EA
:101BD0009D2F977001C0880F9A95EAF70E94A31273
:101BE000802F0E949012C83050F5D77081E001C05C
:101BF000880FDA95EAF7DF91CF911F910F91FF904F
:101C0000EF90DF90CF90BF90AF900C94AA1280E23B
:101C10008C0F8830A0F4C77081E001C0880FCA958E
:101C2000EAF7E9CF802FDF91CF911F910F91FF90BD
:101C3000EF90DF90CF90BF90AF900C949012DF9117
:101C4000CF911F910F91FF90EF90DF90CF90BF90B9
:101C5000AF9008950F939C01CB01233F4CE53407CF
:101C600059F1A8F4283DFCE53F0701F1293D4CE579
:101C70003407D1F1273D3C4591F406E221EE41EED7
:101C800067ED7CE50E94920D80E00F910895253F5D
:101C9000FCE53F07E9F0B0F0263F3C45F9F0FC01D8
:101CA0008281882339F110923401EFCF07E225EECB
:101CB00045EE68ED7CE5E6CF06E221EE40EE63EF0F
:101CC0007CE5E0CF07E225EE44EE64EF7CE5DACF79
:101CD00006E221EE42EE65EF7CE5D4CF07E225EE89
:101CE00046EE66EF7CE5CECF08E221E045EE69EDF9
:101CF0007CE5C8CF81E0C9CFCF93DF93EC01FB0136
:101D00008281882309F41BC1C230FCE5DF07C0F1E2
:101D1000C6319CE5D90730F09E012A5F3C45293049
:101D2000310570F50E94B51B9093BA018093B901FB
:101D3000C031ECE5DE0709F4CFC008F057C0C83069
:101D40008CE5D80709F4B2C088F5C430ECE5DE07AD
:101D500009F4A2C0C0F4C2308CE5D80709F496C0DB
:101D60008091B9018260C330DC4509F492C0809152
:101D7000B9019091BA010E94C31B0E94171580E01F
:101D8000DF91CF9108958091B9018061C630ECE573
:101D9000DE0709F47EC08091B9018860C730DC4558
:101DA00008F477C08091B901806273C0CC308CE5B3
:101DB000D80709F489C058F4CA30ECE5DE0709F405
:101DC0007FC008F477C08091B9018E7F62C0CE30A9
:101DD0008CE5D80709F47CC08091B901CF30DC458F
:101DE00008F485C08091B9018F7E53C0CB3FECE5EC
:101DF000DE0709F455C020F5C3318CE5D80709F496
:101E000073C078F4C131ECE5DE0709F469C0C23172
:101E1000DC4509F0ACCF0E9417158091B9018F778E
:101E200038C0C5318CE5D80709F468C008F47CC017
:101E30008091BA01CA3FDC4509F099CF816033C077
:101E4000CF3FFCE5DF0709F454C088F48091BA0164
:101E50008D7FCD3F9CE5D90731F18091BA01CE3F0E
:101E6000DC4508F449C08091BA018260E7CFC130F7
:101E7000FDE5DF0709F461C008F44CC080E0C23022
:101E8000DD4509F074CF0E94411C71CF8091B901EA
:101E900081608093B9016BCF8091B9018460F9CFE3
:101EA0008091BA0182608093BA0161CF8091B901BB
:101EB0008064EFCF0E9417158091B9018068E9CF47
:101EC0008091B9018860EACF8091B9018D7FE1CF1F
:101ED0008091B901877FDDCF8091B9018F7DD9CF06
:101EE0008091B9018F7BD5CF8091B901877F8B7F9E
:101EF000D0CF8091BA018D7F8E7FD5CF8091B901EF
:101F000082FB992790F921E0922790FB82F990FBC0
:101F100083F9BFCF8091BA01982F909591708E7FF1
:101F2000892B90FB81F9BFCF0E9417159091B901C1
:101F3000892F97FB87F98058ACCF81E0A4CF81E04F
:101F40001FCFCF93DF93EB0186319C4511F50E94A3
:101F5000D31A9A81992399F08A7A91E009F490E052
:101F600090933501811109C089E20E94AE1A0E9446
:101F7000221B80E0DF91CF91089585E3F6CF809119
:101F80003501811104C089E20E94B51AF0CF85E3C2
:101F9000FBCF81E0EFCF289A219A229A23982B98A1
:101FA00080E58CBD0895909100019F3F09F072C0BB
:101FB0008F3F09F46FC0611145C0109237019091B5
:101FC0003701423009F442C0433009F443C0946001
:101FD0004130E9F141E050E042175307E8F19091B8
:101FE00037014031510509F453C0C8F5423051055D
:101FF00009F447C04830510509F447C09CB5209109
:102000003701922B9CBD90913601992319F09DB513
:1020100091609DBD80930001E82FE295EF70F0E0A4
:1020200031A1282F2F7081E090E001C0880F2A9500
:10203000EAF7932F982B91A392A18095892382A3ED
:1020400081E0089590E290933701B9CF9860909322
:102050003701C0CF9C60FBCF440F551FBDCF40342C
:10206000510549F04038510541F04032510531F6F3
:1020700021E020933601926001C093609093370174
:10208000BDCF91E090933601B9CF21E02093360186
:102090009160F4CF80E00895CF93DF938EBD0E94CE
:1020A000141DEC010DB407FE05C08EB590E0DF9164
:1020B000CF9108950E94141D8C1B9D0B84369105B1
:1020C00088F38EEF9FEFF3CFCF93DF931EBC0E9478
:1020D000141DEC010DB407FE05C08EB590E0DF9134
:1020E000CF9108950E94141D8C1B9D0B8436910581
:1020F00088F38EEF9FEFF3CF809100018F3F29F19E
:10210000E82FE295EF70F0E041A18F7021E030E020
:10211000B90102C0660F771F8A95E2F7CB01942FB1
:10212000982B91A392A1892B82A38FEF809300011A
:102130008DB58E7F8DBD9CB58091370180958923AB
:102140008CBD1092370110923601089590933D0195
:1021500080933C010895E0913C01F0913D0130975E
:1021600021F00190F081E02D099480E00895EF9234
:10217000FF920F931F93CF93DF938C01E0913C016B
:10218000F0913D013097C1F10280F381E02D099576
:102190008091930182FF30C080FF04C082E19DE006
:1021A0000E94DD07D0E0C0E08CE0E82E8DE0F82E44
:1021B0008091930180FF0EC0F801EC0FFD1F80811C
:1021C0001F928F93FF92EF920E9476080F900F90CC
:1021D0000F900F902196C830D10551F7809193014F
:1021E00080FF0AC08AE09DE0DF91CF911F910F919F
:1021F000FF90EF900C94DD07DF91CF911F910F912D
:10220000FF90EF900895E0913C01F0913D013097EF
:1022100039F022E0DC012C930480F581E02D099453
:10222000089520913A0130913B012817390771F048
:1022300090933B0180933A01E0913C01F0913D0184
:10224000309721F00680F781E02D099408952091C0
:102250003801309139012817390771F0909339010D
:1022600080933801E0913C01F0913D01309721F0DD
:102270000084F185E02D0994089585B7806885BFB5
:1022800085B7806885BF0895089508950C9444111A
:102290000C94E0090E943D110E9445110C944611D6
:1022A00081E008950C9450110E940B1D0E94DF0CD8
:1022B0000E94791D0E94B9080C944811CF93C82F31
:1022C0008091930182FF1EC080FF04C08BE29DE0DD
:1022D0000E94DD078091930180FF0CC01F92CF9375
:1022E00086E29DE09F938F930E9476080F900F9057
:1022F0000F900F908091930180FF04C084E29DE0D5
:102300000E94DD078C2FCF910C94480A0F931F93E6
:10231000CF93DF93CDB7DEB72A970FB6F894DEBF21
:102320000FBECDBF0E94EC0C0E94521181112EC035
:102330008FEF89838A831B820E94141D8160782F0E
:102340009D838C8349815A816B818D810E94FF110D
:102350000E94AA1F0E9488090E94AB1090913E0122
:10236000891709F441C00E94AB1080933E012A9660
:102370000FB6F894DEBF0FBECDBFDF91CF911F9196
:102380000F910C945E1180E001E015C080E00E9486
:10239000B10C182F80913F01082F0127811741F2BE
:1023A0008091930181FD0E94B70C00FDECCF01FFED
:1023B000BFCF81E002E08E831F82102381E009F409
:1023C00080E088870E94141D8160782F9A87898712
:1023D0004E815F8168858A850E94FF1180913F014F
:1023E000802780933F01B4CF2A960FB6F894DEBFC2
:1023F0000FBECDBFDF91CF911F910F910895CF9365
:10240000DF93CDB7DEB72B970FB6F894DEBF0FBEC4
:10241000CDBF4F83588769877A878B871E821D823D
:1024200085E0FE013796DE01119601900D928A95A6
:10243000E1F749815A816B817C818D819E812B9648
:102440000FB6F894DEBF0FBECDBFDF91CF910C94D5
:10245000B917FC01808191810C94801ACF93C82F09
:10246000882369F18CEF8C0F813AA0F46C2F809156
:102470000101909102010E94521C882329F08C2FA7
:102480000E94B51A0E94221B8C2F0E94AE1ACF9177
:102490000C94221B80E28C0F883048F4C77081E0D6
:1024A00001C0880FCA95EAF70E94D61AF0CFC03F44
:1024B00030F08C2F0E941E1ECF910C940A1FCF91DA
:1024C0000895882361F19CEF980F913A20F40E94BF
:1024D000B51A0C94221B90E2980F983050F4877034
:1024E00091E001C0990F8A95EAF7892F0E94DC1AC2
:1024F000F0CF9BE5980F933020F490E080E00C94AF
:10250000111198E5980F973120F490E080E00C9439
:102510002711803F20F00E94861E0C940A1F089508
:10252000CF93C82F0E942E12C93349F42FEF87EEA4
:1025300093E0215080409040E1F700C000008C2FD4
:10254000CF910C946112882321F00E94D61A0C942A
:10255000221B0895882321F00E94DC1A0C94221B70
:102560000895CF92DF92EF92FF920F931F93CF9334
:10257000DF936C01D62FC72FFC01058102950F70E8
:10258000128111110E94F51A0E94CC1AE82E88239C
:1025900091F0112351F18C2F807F803421F080E263
:1025A0008D0F883010F182E00E946D1B0E94CC1AC2
:1025B00091E0E82EE926FC2EF2949FE0F922EF2D1F
:1025C000F0E0EB51FD4E0C942028F712F712441363
:1025D00044136914961369146914A1133014411437
:1025E0004114AA1469146914B314E12CE4CF0C2F1C
:1025F0000F70C07F11F00295007F1123A9F0002316
:1026000059F080E28D0F883010F0D11109C0802F71
:102610000E94D61A0E94221B8D2F0E942E1214C0D7
:10262000802F0E94E71AF6CF8D2F0E94611200239F
:1026300059F080E28D0F883010F0D11121C0802F29
:102640000E94DC1A0E94221BEE2009F493C10E9412
:10265000C81A80FD8FC1F60112820E94C21A0E9420
:102660004C19C6010E94DA140E94C21ADF91CF9160
:102670001F910F91FF90EF90DF90CF900C946D1908
:10268000802F0E94ED1ADECFFC2FFF70FF2EC07F3F
:10269000C03219F0F29480EFF822DD2369F0D130D6
:1026A00049F1112391F1002351F1F601858180FF59
:1026B000B3CF8F70858323C0112381F0011106C031
:1026C0000E94091B8F290E94A312BECF0130C1F7BF
:1026D0000E94091B8F290E940F1BB6CF011106C053
:1026E0000E94181B8F2D0E94AA12AECF013009F450
:1026F000ABCFF6CF112329F0063008F0A5CF8F2DF0
:10270000E2CF053008F0A0CFEDCF002359F3D93345
:1027100049F4FFEF27EE83E0F15020408040E1F7DD
:1027200000C000008D2F0E9461128ECF8D2F1123CB
:1027300029F00E941E1E0E940A1F86CF0E94861E3C
:10274000FACF8C2F837009F045C0111135C04D2F81
:10275000429546954770440F440F0D2F0F7010E0BF
:1027600030E020E0042E04C0000F111F221F331F91
:102770000A94D2F760E070E0CB01D4FF0FC06FE0A5
:1027800070E080E090E004C0660F771F881F991FFB
:102790004A95D2F76095709580959095602B712B36
:1027A000822B932BC695C695C370C23069F078F41E
:1027B000C13039F00E94FE180E94AB100E94480AF6
:1027C00043CF0E94EC18F8CF0E941019F5CF0E9459
:1027D000EA18F2CF8695112311F08C2F817088238F
:1027E00059F34D2F429546954770440F440F0D2FD6
:1027F0000F7010E030E020E0042E04C0000F111F25
:10280000221F331F0A94D2F760E070E0CB01D4FF9F
:102810000FC06FE070E080E090E004C0660F771FAB
:10282000881F991F4A95D2F760957095809590956D
:10283000602B712B822B932BC695C695C370C2302B
:1028400049F058F4C13019F00E94C319B5CF0E9465
:10285000B119B2CF0E94D519AFCF0E942619ACCFC3
:10286000CF70112339F08C2F0E944C198D2F0E94AC
:10287000A312A2CF8D2F0E94AA128C2F0E946D1935
:102880009BCFD23FB1F170F4D03FD9F0D13F51F19D
:10289000112309F44BC0002309F445C08D2F0E9479
:1028A0002E1217C0D33F61F1D43F91F7112391F15C
:1028B000CF718C2F0E944C1963E08C2F0E94581B03
:1028C00008C0112361F0053020F48C2F8F710E9415
:1028D000901988EF8F0D843008F0B6CE6DCF06309A
:1028E000C0F7F3CF8C2F8F71112339F00E944C1950
:1028F000F0CF8C2F8F711123C9F30E946D19E9CF8E
:10290000112329F08C2F8F710E943719E2CF0E947A
:102910003219DFCF81E00E946D1B0230D0F282E0DD
:102920000E946D1BD6CF8C2F8F71E0CF002379F0E2
:10293000D93349F49FEFE7EEF3E09150E040F040E7
:10294000E1F700C000008D2F0E946112C2CF8C2FD2
:102950008F71D3CF4C2F4F706D2FC6010E94B20ADA
:102960000E94621871CE4C2F4F706D2FC6010E94CD
:10297000B50A6ACEDF91CF911F910F91FF90EF9032
:10298000DF90CF9008950F931F93CF93DF93EC01C7
:10299000688179818A810E948A1A8C010E94E719D4
:1029A0000E94E918B801CE01DF91CF911F910F91DC
:1029B0000C94B112CF93DF93EC01988189812B8124
:1029C0003C81232B39F08F3F19F481E09F3F19F0B0
:1029D00080E001C081E080FD19C0CE010E94600A44
:1029E00081110CC00E94CC1A882381F08A8188232F
:1029F00069F082E0DF91CF910C946D1BCE010E94B3
:102A0000C314CE01DF91CF910C942C0ADF91CF91AA
:102A100008950E94F51A0E94061B0E94221B0E9424
:102A2000BB200C940A1F0E94BC1A0C9409150E942A
:102A3000E41A0C941315E92FE295EF70E250EE3092
:102A4000E0F4F0E0EA5DFA4E0C94202834153415D9
:102A50003D153D153F153D153D153D1534153415F6
:102A600044153D153D154415803F19F020F4883E6E
:102A700020F481E00895843FE1F380E00895883EEA
:102A8000C0F3813FD1F7F5CF93FB882780F90895F4
:102A90000E94801A0C941B15CF93DF9300D000D0B6
:102AA0001F92CDB7DEB70F900F900F900F900F9041
:102AB000DF91CF910895CF93DF9300D000D000D065
:102AC000CDB7DEB726960FB6F894DEBF0FBECDBFEA
:102AD000DF91CF9108951F93CF93DF93C091410170
:102AE00016E0809142018C1304C0DF91CF911F91B9
:102AF0000895D0E01C9FF0011D9FF00D1124ED5BA7
:102B0000FE4F4081518162817381848195810E9451
:102B10005B152196C770E5CF409173015091740108
:102B200060917501709176018091770190917801A3
:102B30000C945B150F931F93CF93DF9380917801D3
:102B4000807FB9F480917501882399F080914101CB
:102B5000109142016091730170917401C0917601EE
:102B6000D091770121E06F3F09F020E006E01813D3
:102B700005C0DF91CF911F910F91089531E020970B
:102B800021F0322F7F3F09F030E090E030FD33C07C
:102B9000089FF001099FF00D1124DF01AD5BBE4FCE
:102BA00011963C911197371326C03C91361323C0E0
:102BB00012963C91129731111EC013964D915C9163
:102BC0004C1B5D0B483C5105B0F4809178018F702F
:102BD000806180937801E85BFE4F80818F70806117
:102BE000808383E791E00E94DA14DF91CF911F91F7
:102BF0000F910C946B1501968770B9CF9F92AF928D
:102C0000BF92CF92DF92EF92FF920F931F93CF93D9
:102C1000DF93CDB7DEB761970FB6F894DEBF0FBE76
:102C2000CDBF8C0185E0F801DE011D9601900D926B
:102C30008A95E1F7F80140815181E280909173011A
:102C400060917401209176013091770181E0211526
:102C5000310531F06F3F19F481E09F3F09F080E0CA
:102C6000F82FF1709F2E80FD65C1F801A380B4801C
:102C700083E7C82E81E0D82EF0907501F501E21BA4
:102C8000F30BFF2009F404C180917801782F707F45
:102C9000E83CF10508F0BAC0711181C0FE2C651343
:102CA00024C0941322C0E11020C08F7080618093F3
:102CB00078010E948C15C6010E94DA148091780177
:102CC000F80185838F2D61960FB6F894DEBF0FBE95
:102CD000CDBFDF91CF911F910F91FF90EF90DF90CB
:102CE000CF90BF90AF909F90089581E0AB2831F0D6
:102CF0005F3F19F481E04F3F09F080E080FD23C081
:102D000081E08E25F82FF170DF2E80FF3EC080918C
:102D100041012091420136E0821317C04D875E8742
:102D20008D859E850E94801A292F22952F70223032
:102D300000F1243028F59F7001F1F8019581907F12
:102D4000E1F4F92CBFCF80E0DDCF90E0389FF001B7
:102D5000399FF00D1124ED5BFE4F6181561306C0C3
:102D60006081461303C062816E110FC001968770A7
:102D7000D3CF9F7011F0882321F3805E883008F351
:102D8000C8010E94DA149D2CDCCFEE2009F49ACF02
:102D900080917801816080937801F12C93CF651345
:102DA00006C0941304C0F801EE2009F48DC04D87CD
:102DB0005E878D859E850E944815882319F1EE2037
:102DC00009F180917801803270F020917301309187
:102DD000740138872F831986BB86AA868C87CE011B
:102DE00007960E94DA1486E0F801A3E7B1E00190AB
:102DF0000D928A95E1F70E949A150E948C15FF2486
:102E0000F39460CFC8010E94DA14F9CF711113C096
:102E10007A2DB98AA88A6E2D89890E944C1583E77C
:102E200091E00E94DA1486E0F60111928A95E9F7A2
:102E30000E948C15B2CF65130FC094130DC0E11022
:102E40000BC0F8018583C8010E94DA1486E0F60100
:102E500011928A95E9F736CF4D875E878D859E85DD
:102E60000E944815882371F2EE2061F2809178016A
:102E7000803208F4B8CF20917301309174013A8305
:102E800029831B82BD82AC828E83CE010196A9CF9D
:102E9000E83CF10508F041C0FE2CEE2009F4B2CF69
:102EA00065132AC0941328C08091780180FD1BC04F
:102EB000982F907FC1F0F8018583903F31F0982FD3
:102EC000907F905F8F70892B8583C8010E94DA14F0
:102ED00086E0F801A3E7B1E001900D928A95E1F751
:102EE0000E948C15EFCE86E0F801A3E7B1E00190D7
:102EF0000D928A95E1F7E6CE4D875E878D859E859A
:102F00000E94481581116FCF809178018160809374
:102F10007801C8010E94DA14D5CE7A2DB98AA88A20
:102F20006E2D89890E944C1586E0F60111928A95D2
:102F3000E9F7D6CFEE2009F465CF4D875E878D8502
:102F40009E850E944815F82E882309F45BCF86E001
:102F5000F801A3E7B1E001900D928A95E1F783E7CC
:102F600091E00E9429120E949A15BACF88EC90E055
:102F700008951F93CF93DF93CDB7DEB72C970FB68D
:102F8000F894DEBF0FBECDBF4F83588769877A871D
:102F90008B879C87CE0107960E94FE15882309F433
:102FA00042C09F8188852A853B85232B39F08F3F3E
:102FB00019F481E09F3F19F080E001C081E080FDBD
:102FC00008C04F81588569857A858B859C850E94CC
:102FD0005B1516E08091410190914201891709F437
:102FE00067C0819FC00111248D5B9E4F0E94FE151A
:102FF000882309F45DC0E09141011E9FF001112476
:10300000ED5BFE4F408151816281738184819581A6
:103010000E945B158091410190E00196877099278D
:1030200080934101D7CF86E0FE013796DE011196ED
:1030300001900D928A95E1F79F8188852A853B85CD
:10304000232B39F08F3F19F481E09F3F19F080E086
:1030500001C081E080FDBDCF2091420130E0C90177
:10306000019687709927409141014817190699F0F8
:1030700096E0929FD001939FB00D1124AD5BBE4F9F
:10308000FE01319601900D929A95E1F780934201ED
:103090000E946B159ECF0E9417151092420110924C
:1030A000410186E0E3E7F1E0DF011D928A95E9F74F
:1030B0002C960FB6F894DEBF0FBECDBFDF91CF9137
:1030C0001F910895EF92FF920F931F93CF93DF9379
:1030D0008C01892B81F0F12CEE24E394E8012196F8
:1030E000F8018491843770F4843008F05FC0813037
:1030F000B1F08230A1F1DF91CF911F910F91FF903C
:10310000EF900895853709F44CC008F43DC09CE762
:10311000980F903780F78F770E94611249C00E5F39
:103120001F4FFE01849190E2980F983060F48770F1
:10313000FE2D01C0FF0F8A95EAF78F2F0E94F81A23
:103140000E94221B02C00E942E128F2D815030F24D
:10315000EFE9FFE03197F1F700C00000F7CF0E5F15
:103160001F4FFE01849190E2980F983050F48770C1
:10317000FE2D01C0FF0F8A95EAF78F2F0E94FE1ADD
:10318000DFCF0E946112E1CF0E5F1F4FFE01C4919D
:10319000C150D8F28FE99FE00197F1F700C000001D
:1031A000F7CF0E5F1F4FFE01F490CFCF0E942E127B
:1031B0008E01CBCF08950C94DA180E94DB1860932F
:1031C00082017093830180938401909385010C9414
:1031D000091508950C94DD180F931F930091820137
:1031E000109183012091840130918501602B712B16
:1031F000822B932B1F910F910C94DD180F931F932B
:103200000091820110918301209184013091850108
:1032100060237123822393231F910F910C94DD1857
:103220000F931F93009182011091830120918401DB
:103230003091850160277127822793271F910F9175
:103240000C94DD180C94DA180C9422190E9424199D
:1032500060937E0170937F01809380019093810140
:103260000C94091560E070E0CB010C9426190F93C3
:103270001F9341E050E060E070E08A019B0104C0D0
:10328000000F111F221F331F8A95D2F7C901B80101
:103290001F910F910C9426190F931F9341E050E05A
:1032A00060E070E004C0440F551F661F771F8A95C9
:1032B000D2F780917E0190917F01A0918001B09121
:1032C00081018A019B01082B192B2A2B3B2BC90159
:1032D000B8011F910F910C9426190F931F9341E091
:1032E00050E060E070E004C0440F551F661F771F78
:1032F0008A95D2F7CB01BA0160957095809590952B
:1033000000917E0110917F01209180013091810117
:1033100060237123822393231F910F910C9426190C
:103320000F931F9341E050E060E070E004C0440F51
:10333000551F661F771F8A95D2F780917E01909165
:103340007F01A0918001B09181018A019B01082732
:1033500019272A273B27C901B8011F910F910C9407
:1033600026190F931F9300917E0110917F012091E8
:10337000800130918101602B712B822B932B1F9147
:103380000F910C9426190F931F9300917E011091B9
:103390007F0120918001309181016023712382237C
:1033A00093231F910F910C9426190F931F93009153
:1033B0007E0110917F012091800130918101602771
:1033C0007127822793271F910F910C942619089536
:1033D000990F890F982F977071E001C0770F9A9518
:1033E000EAF786958695869525E0829FC00111248F
:1033F00050E040E0A62FB0E0FC01E40FF51FE758D5
:10340000FE4F60819D01042E02C0369527950A94D7
:10341000E2F72170219526272723262720834F5F57
:103420005F4F4530510541F70895990F890F982F47
:10343000977086958695869525E0829FA001112438
:1034400070E060E080E0FA01E60FF71FE758FE4FFA
:10345000208130E0092E02C0369527950A94E2F7C4
:1034600021703327062E01C0220F0A94EAF7822B1F
:103470006F5F7F4F6530710531F70895BF92CF922E
:10348000DF92EF92FF920F931F93CF93DF938C0104
:10349000C0907E01D0907F01E0908001F09081018A
:1034A0008091820190918301A0918401B091850166
:1034B000C82AD92AEA2AFB2ACFE1D0E0BC2ED701BC
:1034C000C6010C2E04C0B695A795979587950A94CA
:1034D000D2F780FD0EC0219788F7B12C8B2DDF919C
:1034E000CF911F910F91FF90EF90DF90CF90BF9001
:1034F0000895B8018C2F0E94CE0A019761F3EECF98
:10350000CF93DF93EC010E943E1ABE01DF91CF9171
:103510000C94CE0A1F93CF93DF93EB01909140015F
:10352000992331F0CB01DF91CF911F910C94801A38
:10353000882379F0CB010E943E1A182F682FCE0104
:103540000E94E819BE01812FDF91CF911F910C9449
:10355000CE0ACB010E94151A182FF4CF682F809144
:103560000101909102010C94881C682F8091010147
:10357000909102010C948A1C8091010190910201AA
:103580000C948C1C80918601859585958595089570
:10359000809186018770089590918601977081E0EF
:1035A00009F480E00895809192010895909192012C
:1035B000892B809392010895982F90958091920184
:1035C0008923809392010895109292010895909119
:1035D0009101892B809391010895982F9095809166
:1035E000910189238093910108951092910108958A
:1035F00090919001892B809390010895982F909538
:1036000080919001892380939001089510929001F8
:10361000089580918701089508950C940C1B909152
:103620008701981721F0809387010C940D1B089552
:1036300080918701882329F01092870180E00C9403
:103640000D1B0895E0910101F0910201809192011A
:103650008083E0910101F0910201808190919101BC
:10366000892B8083E0910101F0910201808190918A
:103670009001892B808390918701992381F0E091BB
:103680000101F09102018081892B808380910101E9
:10369000909102010E94461C81110E94181B80918A
:1036A0000101909102010C94B71008950C94551BE0
:1036B00098E0899F90011124622B609386010E94FB
:1036C0004C19809186018595859585950C94561B9E
:1036D0001092860180E00C94561B90918601809593
:1036E000892380938601282F277071F4282F082EB4
:1036F000000C330B9217130639F085958595859547
:103700000E946D190C94681B089590932701809373
:1037100026010895829590E09C01220F331F220F0D
:10372000331F2C7C95958795959587958373282BCA
:1037300030E0C901880F991F8A7A3595279525753C
:10374000822B089590E080E00E94422821E08C3E88
:103750009E4F09F020E0822F089582E090E00C94C3
:103760003A2883E090E00C943A28CF9384E090E0EC
:103770000E943A28C82F81E290E00E943A28982FB0
:103780008C2FCF910895CF93C92F682F84E090E0BC
:103790000E9448286C2F81E290E0CF910C94482839
:1037A000AB01BC018FE090E00C945A28AB01BC0146
:1037B00083E190E00C945A2860E070E0CB010C9417
:1037C000D61B60E070E0CB010E94D01B0C94DC1B88
:1037D0006CEE7EEF90E080E00E94662860E082E080
:1037E00090E00E94482860E083E090E00E94482832
:1037F000109282011092830110928401109285012F
:1038000060E084E090E00E94482860E081E290E07F
:103810000E94482860E085E090E00E94482860E02F
:1038200086E090E00E9448286FEF87E090E00E94D9
:10383000482840E050E0BA0188E090E00E945A2811
:1038400060E08DE090E00E94482840E050E0BA013E
:1038500088E190E00E945A2860E087E190E00E94B1
:10386000482840E050E0BA018CE190E00E945A28DC
:1038700060E080E290E00E9448280C94E11B0C94E8
:10388000E81B682F8EE090E00C944828FC013296EB
:1038900097E080E0915009F4089521912223D1F31B
:1038A0008F5FF8CF662349F0FC013296089621918C
:1038B000261729F0E817F907D1F780E0089581E08D
:1038C00008959C01FC0132969FEF80E041914617DC
:1038D00051F09F3F19F4411101C0982F8F5F86303E
:1038E000A9F79F3F09F40895290F311D97FD3A95D7
:1038F000F90162830895FC013296089621912613FE
:1039000003C0DF0111971C92E817F907B9F7089572
:103910000C94611C0C947B1C029626E0FC01119215
:103920002A95E9F70895089508950C94941C0E942F
:10393000951C8091BF01843049F11092940188E177
:1039400090E020E40FB6F894A895809360000FBE35
:103950002093600080E00E94480A0E94951C83B773
:10396000817F846083BF83B7816083BF78948895AB
:1039700083B78E7F83BF0FB6F894A89580916000BF
:10398000886180936000109260000FBE08950895D2
:103990000E94931C0E94EC0C0E94C71C80E00E94B5
:1039A000B10C91E0811101C090E0892F0895089534
:1039B0000C94D71C0E9417150E94AB100E94480A55
:1039C0000C94D81C1F920F920FB60F9211248F9354
:1039D0009F93AF93BF9380919401811113C0809105
:1039E000B5019091B601A091B701B091B80141968F
:1039F000A11DB11D8093B5019093B601A093B701AD
:103A0000B093B801BF91AF919F918F910F900FBE6E
:103A10000F901F90189582E084BD93E095BD9AEFBA
:103A200097BD80936E0008952FB7F8948091B501EB
:103A30009091B601A091B701B091B8012FBF089540
:103A40009C014FB7F8948091B5019091B601A09177
:103A5000B701B091B8014FBF821B930B08957894C2
:103A60001F920F920FB60F9211248F939F93AF93D3
:103A7000BF938091B5019091B601A091B701B0912B
:103A8000B8010196A11DB11D8093B5019093B601B7
:103A9000A093B701B093B801BF91AF919F918F915F
:103AA0000F900FBE0F901F90189581E08093E0005B
:103AB00080E28093D8001092C9008FE19EE40197C4
:103AC000F1F700C0000087E090EBDC018093C801B3
:103AD0009093C901A093CA01B093CB0188E19CE007
:103AE0000FB6F894A895809360000FBE9093600085
:103AF000FFCF0E94A21B811102C00E943F1C0E94A6
:103B0000AD1B809393010E94B51B9093BA018093E3
:103B1000B9010E94B11B682F70E090E080E00E9424
:103B2000EA1860917E0170917F01809180019091EF
:103B300081010C94241980919B0180FF12C0609137
:103B4000080185E0689FB00111247595679575950A
:103B5000679560387105A8F561157105A1F1862F8B
:103B6000089581FF09C06091080185E0689FB00158
:103B7000112475956795EDCF82FF07C0609108010C
:103B800085E0689FB0011124E4CF20919A0122239F
:103B9000A9F0909107016091080185E0689FB0014C
:103BA00011242917B0F6269FA001279F500D11243C
:103BB000692F70E0CA010E940C28CBCF65E070E04D
:103BC000CECF8FE7089581E0089580919B0180FF1B
:103BD0000CC06091040170E07595679575956795C7
:103BE0006115710549F1862F089581FF06C0609126
:103BF000040170E075956795F3CF6091040182FD33
:103C00000BC0909199019923A1F0609103018091DB
:103C10000401961738F0682F70E06038710500F3E2
:103C20008FE70895899FC001112470E00E940C283D
:103C3000F4CF61E070E0D7CF81E00895803F31F4A8
:103C40000E949B1D819580939F010895813F19F4E7
:103C50000E949B1DF8CF823F31F40E949B1D8195ED
:103C600080939E010895833F19F40E949B1DF8CF15
:103C7000893F29F40E94E51D8093A00108958A3FA1
:103C800021F40E94E51D8195F7CF8B3F31F40E940E
:103C9000E51D81958093A10108958C3F19F40E9440
:103CA000E51DF8CF843F31F480919D0181608093C0
:103CB0009D010895853F21F480919D018260F7CF99
:103CC000863F21F480919D018460F1CF873F21F4EC
:103CD00080919D018860EBCF883F21F480919D0108
:103CE0008061E5CF8D3F31F480919B0181608093AD
:103CF0009B0108958E3F21F480919B018260F7CF54
:103D00008F3FB9F780919B018460F1CF803FD1F460
:103D100080919F0187FD10929F0180919E018111EA
:103D200006C080919F01811102C010929A0180917A
:103D3000A001811106C08091A101811102C01092E1
:103D400099010895813F29F480919F0118161CF371
:103D5000E4CF90919E01823F29F497FFDECF10922D
:103D60009E01DBCF833F19F41916CCF3D6CF909187
:103D7000A001893F29F4191684F61092A001CDCF35
:103D80008A3F19F497FFC9CFF8CF8B3F39F4809160
:103D9000A10187FFC2CF1092A101BFCF8C3F29F4B0
:103DA0008091A1011816BCF3B8CF843F31F4809103
:103DB0009D018E7F80939D01B0CF853F21F480913E
:103DC0009D018D7FF7CF863F21F480919D018B7FF0
:103DD000F1CF873F21F480919D01877FEBCF883F12
:103DE00021F480919D018F7EE5CF8D3F31F480914C
:103DF0009B018E7F80939B0190CF8E3F21F4809119
:103E00009B018D7FF7CF8F3F09F087CF80919B017A
:103E10008B7FF0CF8091930183FF7EC085E69DE08C
:103E20000E94DD0780919D011F928F9380E69DE0A7
:103E30009F938F930E9476088EE59DE00E94DD0798
:103E400080919E01282F082E000C330B3F938F93F7
:103E50008BE59DE09F938F930E94760889E59DE016
:103E60000E94DD0780919F01282F082E000C330B44
:103E70003F938F9386E59DE09F938F930E947608F2
:103E800084E59DE00E94DD078091A001282F082E87
:103E9000000C330B3F938F9381E59DE09F938F93AD
:103EA0000E9476088FE49DE00E94DD078091A101C9
:103EB000282F082E000C330B3F938F938CE49DE04A
:103EC0009F938F930E94760889E49DE00E94DD070E
:103ED00080919A011F928F9386E49DE09F938F9328
:103EE0000E94760884E49DE00E94DD0780919B019A
:103EF0001F928F9381E49DE09F938F930E94760899
:103F00008EE39DE00E94DD078DB79EB74C960FB6FD
:103F1000F8949EBF0FBE8DBF0E94141D20919E017C
:103F2000211104C020919F01222321F09093980138
:103F3000809397012091A001211104C02091A1013B
:103F4000222321F090939601809395018CE991E0D2
:103F50000C940311EF92FF920F931F93CF93DF9373
:103F600000D000D000D0CDB7DEB786E0ECE9F1E0BC
:103F7000DE01119601900D928A95E1F7E0909E0185
:103F8000F0909F010091A0011091A10110929E015B
:103F900010929F011092A0011092A101E11002C0A5
:103FA000FF2091F080919701909198010E94201D2F
:103FB000AC0190919A01992309F443C080910901C1
:103FC0008417150608F44BC0011102C0112391F0AB
:103FD00080919501909196010E94201DAC019091D5
:103FE0009901992309F47AC0809105018417150677
:103FF00008F482C080919E0181110BC080919F01C5
:10400000811107C08091A001811103C08091A1019D
:1040100081110E940A1F86E0FE013196ACE9B1E0F1
:1040200001900D928A95E1F726960FB6F894DEBFBF
:104030000FBECDBFDF91CF911F910F91FF90EF90F9
:10404000089520910A018AE0289F900111242417E5
:10405000350708F0B9CF9F5F90939A0102C09F3F48
:10406000D1F7EE2059F00E949B1D9FEF1E140CF417
:1040700091E0899F802D112480939E01FF2059F0AB
:104080000E949B1D9FEF1F140CF491E0899F802DCF
:10409000112480939F0130919E01332309F494CF22
:1040A00020919F01222309F48FCF45EB3403C001F7
:1040B0001124992359F090939E0145EB240390011C
:1040C0001124332339F030939F017ECF81E0809318
:1040D0009E01F3CF81E080939F0176CF209106016E
:1040E0008AE0289F900111242417350708F082CF19
:1040F0009F5F9093990102C09F3FD1F7002359F031
:104100000E94E51D9FEF10160CF491E0899F802D11
:1041100011248093A001112359F00E94E51D9FEF07
:1041200011160CF491E0899F802D11248093A10138
:104130003091A001332309F45DCF2091A101222306
:1041400009F458CF45EB3403C0011124992359F0E9
:104150009093A00145EB240390011124332339F0FF
:104160003093A10147CF81E08093A001F3CF81E09C
:104170008093A1013FCF86E0ECE9F1E0DF011D92E1
:104180008A95E9F710929A011092990110929B0179
:1041900008958091AD01089508959FB7F894109205
:1041A000A4019FBF9091BF01943009F049C02091B4
:1041B000E9002F709091EC0090FD30C090E0922BC0
:1041C00023E02093E9002091EB0020FF36C02091EE
:1041D000EE0027FF32C02091A201222321F020917E
:1041E000E80025FF2AC01092A20126E03091E800E5
:1041F00035FF16C08093F1008091E80085FD29C04D
:104200008091E80080FFFCCF8091E8008E7780935A
:10421000E8009F709093E90080E0089590E8CFCF88
:104220003091BF01343049F43091EB0035FD05C0C9
:10423000215041F481E08093A2019F709093E900A6
:104240008FEF0895EFE9FFE03197F1F700C000002C
:10425000CDCF8FB7F89421E02093A4018FBFD9CFA1
:104260009C0182E08093E9009FEF8091E8009150EB
:1042700085FD06C085ED8A95F1F700009111F5CF17
:104280008091E80085FF0CC050E040E066E070E0FF
:10429000C9010E946F238091E8008E778093E80027
:1042A0000895CF93DF93EC0181E08093E9008FEFD5
:1042B0009091E800815095FD06C095ED9A95F1F733
:1042C00000008111F5CF8091E80085FF14C050E017
:1042D00040E068E070E0CE010E946F238091E8002A
:1042E0008E778093E80088E0FE01A5EAB1E00190B6
:1042F0000D928A95E1F7DF91CF91089508958DEAA7
:104300009DE00E94DD078091BE01811109C00E94DD
:10431000FF240E945C258091E20084608093E2008B
:10432000089589EA9DE00E94DD071092BE0108957C
:1043300085EA9DE00C94DD0781EA9DE00C94DD07A1
:104340008DE99DE00E94DD070C94DA1C2091A30109
:104350002F5F822F62E30E940028992319F0209397
:10436000A30108951092A3018091A4018823E9F08C
:104370008091BF018430B9F49091E9009F708091E1
:10438000EC0080FD13C080E0892B93E09093E9005E
:104390009091EB0090FF04C09091EE0097FD0AC051
:1043A0008F708093E9001092A401089580E8ECCF0B
:1043B0001092F1009091E80095FDFACF9091E800FD
:1043C00090FFEECF9091E8009E779093E800E8CFC1
:1043D00042E061EC81E00E947D2442E261EC82E0F7
:1043E0000E947D2442E261EC83E00C947D24809164
:1043F000C101833009F462C030F48130D9F18230D8
:1044000009F49EC008958A3009F48AC08B3009F4FB
:1044100070C0893009F051C08091C001813209F02B
:104420004CC08091C4019091C501029708F045C02D
:104430008091E800877F8093E8008091E80082FF08
:1044400038C08091F3009091F2008927982789273E
:10445000029729F48091F1008B7F813021F48091C3
:10446000F1008093AD018091E8008B778093E800A4
:104470000C94B1248091C001813AF9F48091E80054
:10448000877F8093E8008091C4019091C501892BBA
:1044900061F468E085EA91E070E00E94BE238091BB
:1044A000E8008B778093E800089560E090E080E07A
:1044B000F3CF8091BF018111C0CF08958091C001D9
:1044C000813AD9F78091C4019091C501892BA9F750
:1044D0008091E800877F8093E8008091E80080FF6A
:1044E000FCCF809115018093F1008091E8008E77D8
:1044F000BDCF8091C001813201F78091C4019091BC
:10450000C501892BD1F68091E800877F8093E80070
:104510000E94B1248091C201809315010C9417155B
:104520008091C001813249F68091E800877F8093B5
:10453000E8000E94B1248091C3018093AE010895E8
:104540008091C001813A09F0B8CF8091E800877F5F
:104550008093E8008091E80080FFFCCF8091AE015D
:10456000C2CF84B7877F84BF0FB6F894A895809197
:104570006000886180936000109260000FBE80E848
:1045800090E00FB6F89480936100909361000FBEA5
:104590000E944A110E94FF240E945C258091E20043
:1045A00084608093E2008DEC90E20E94851B7894F9
:1045B0000E94E4270E9454118BE091E00E94A61013
:1045C0008CE89DE00E94DD078091BF01853019F0E5
:1045D0000E948611F9CF88E89DE00E94DD070E94C5
:1045E000971C8091BD01882379F30E94C81C882301
:1045F00059F30E945923E8CF0C94FE22292F332728
:104600002330310579F158F421303105F1F02230B1
:10461000310519F190E080E030E020E01AC021324D
:104620003105C9F122323105A9F76330710590F7E0
:10463000FB01EE0FFF1FE75EFE4F208131816A5EB6
:104640007E4FFB01808190E004C082E190E02CE489
:104650003EE0FA013183208308958BE590E021EF5D
:104660003DE0F7CF99278130910579F040F0823015
:10467000910571F0039771F6E1EBFDE002C0EDEEFC
:10468000FDE0849190E09F01E4CFE5ECFDE0F9CFFF
:10469000E7EBFDE0F6CF6330710508F0BBCF660FA6
:1046A000771FFB01E15EFE4F2081318189E090E0C0
:1046B000D0CF80E189BD82E189BD09B400FEFDCF84
:1046C0008091D8008F7D8093D8008091E000826037
:1046D0008093E0008091E00081FDFCCF0895AF92CF
:1046E000BF92CF92DF92FF920F931F93CF93DF93EE
:1046F0006C01EB018A010E94D024F82E811123C0A5
:104700000115110539F0F80180819181C81BD90B81
:10471000C80ED91EB12CA12C2097A9F08091E800D9
:1047200085FD22C08091E8008E778093E800011516
:104730001105A1F0F80180819181A80EB91EB18206
:10474000A08285E0F82E8F2DDF91CF911F910F91E0
:10475000FF90DF90CF90BF90AF9008950E94D0243B
:104760008823D1F2F82EEFCFF60181916F0180936B
:10477000F1002197FFEFAF1ABF0ACECFFC01809165
:10478000C6019091C70186179707A0F061157105C2
:1047900029F49091E8009E779093E80090E06115ED
:1047A000710551F4911108C08091E80082FF35C075
:1047B00080E00895BC01F2CF8091BF018823C9F148
:1047C0008530C9F18091E80083FD31C08091E80017
:1047D00082FDEACF8091E80080FFE1CF2091F300D5
:1047E0008091F200322F282F6115710519F02830C1
:1047F000310558F091E02830310509F090E0209122
:10480000E8002E772093E800CACF81918093F100D1
:10481000615071092F5F3F4FE7CF8091BF0188231F
:1048200041F0853041F08091E80083FFBDCF81E009
:10483000089582E0089583E00895FC018091C60107
:104840009091C70186179707A0F06115710529F4AB
:104850008091E8008E778093E80090E06115710503
:1048600051F4911108C08091E80082FF36C080E0C9
:104870000895BC01F2CF8091BF018823D1F185302A
:10488000D1F18091E80083FD32C08091E80082FD83
:10489000EACF8091E80080FFE1CF2091F300809182
:1048A000F200322F282F6115710519F028303105DB
:1048B00058F091E02830310509F090E08091E8004F
:1048C0008E778093E800CACF84918093F10031966F
:1048D000615071092F5F3F4FE6CF8091BF01882360
:1048E00041F0853041F08091E80083FFBCCF81E04A
:1048F000089582E0089583E00895982F973028F076
:104900008F708093E90081E008959093E900242F4F
:10491000762F50E0981731F07091EC002091ED0067
:104920005091F00021FD02C09F5FE8CF3091EB0075
:104930003E7F3093EB003091ED003D7F3093ED00F2
:104940003091EB0031603093EB007093EC002093DA
:10495000ED005093F0002091EE0027FDE5CF80E0C0
:1049600008958091C00187FF13C08091E80082FF05
:1049700006C08091E8008B778093E80004C08091A6
:10498000BF018111F2CF08958091BF018823D9F32F
:104990008091E80080FFF8CF8091E8008E77ECCF1F
:1049A0002091E4003091E50085E69091EC0090FFC5
:1049B00006C09091E80090FF06C080E008959091B5
:1049C000E80092FDFACF9091BF01992391F09530C4
:1049D00091F09091EB0095FD10C04091E400509152
:1049E000E5002417350709F381509A01F1F684E0B8
:1049F000089582E0089583E0089581E008950E947B
:104A00006D250E947525E0EEF0E080818160808355
:104A1000E8EDF0E080818F77808319BCA7EDB0E0EE
:104A20008C918E7F8C9380818F7E80831092BE01CB
:104A300008950F931F93CF93DF930E946D250E94DB
:104A40007525C8EDD0E088818F778883888180685C
:104A5000888388818F7D888319BC1092BF01109252
:104A6000BB011092BD011092BC0100EE10E0F801F4
:104A700080818B7F808388818160888342E060E0D1
:104A800080E00E947D24E1EEF0E080818E7F8083D3
:104A9000E2EEF0E0808181608083808188608083A5
:104AA000F80180818E7F8083888180618883DF9197
:104AB000CF911F910F910895E8EDF0E080818F7EF6
:104AC0008083E7EDF0E080818160808384E082BFB5
:104AD00081E08093BE010C941925E8EDF0E080811F
:104AE0008E7F80831092E20008951092DA00109277
:104AF000E10008951F920F920FB60F9211242F9389
:104B00003F934F935F936F937F938F939F93AF9355
:104B1000BF93EF93FF938091E10082FF0BC08091E0
:104B2000E20082FF07C08091E1008B7F8093E1006B
:104B30000E94A6218091DA0080FF19C08091D800E0
:104B400080FF15C08091DA008E7F8093DA0080911B
:104B5000D90080FF94C080E189BD82E189BD09B49C
:104B600000FEFDCF81E08093BF010E947F218091F4
:104B7000E10080FF19C08091E20080FF15C08091A4
:104B8000E2008E7F8093E2008091E200806180935A
:104B9000E2008091D80080628093D80019BC85E043
:104BA0008093BF010E949C218091E10084FF29C075
:104BB0008091E20084FF25C080E189BD82E189BD4A
:104BC00009B400FEFDCF8091D8008F7D8093D8007E
:104BD0008091E1008F7E8093E1008091E2008F7EE2
:104BE0008093E2008091E20081608093E2008091F6
:104BF000BB01882309F449C084E08093BF010E946F
:104C0000A0218091E10083FF29C08091E20083FF11
:104C100025C08091E100877F8093E10082E080934E
:104C2000BF011092BB018091E1008E7F8093E10073
:104C30008091E2008E7F8093E2008091E2008061AB
:104C40008093E20042E060E080E00E947D24809159
:104C5000F00088608093F0000E949821FF91EF910E
:104C6000BF91AF919F918F917F916F915F914F9184
:104C70003F912F910F900FBE0F901F90189519BC68
:104C80001092BF010E94912172CF8091E30087FDB5
:104C900002C081E0B2CF83E0B0CF1F920F920FB677
:104CA0000F9211242F933F934F935F936F937F93B2
:104CB0008F939F93AF93BF93CF93EF93FF93C09145
:104CC000E900CF708091EC001092E9008091F00033
:104CD000877F8093F00078940E9489261092E900E3
:104CE0008091F00088608093F000C093E900FF910C
:104CF000EF91CF91BF91AF919F918F917F916F91E4
:104D00005F914F913F912F910F900FBE0F901F9089
:104D100018951F93CF93DF93CDB7DEB7AA970FB641
:104D2000F894DEBF0FBECDBFE0ECF1E08091F10062
:104D3000819321E0E83CF207C9F70E94F7218091B6
:104D4000E80083FF44C08091C0019091C1019A3076
:104D500008F03DC0E92FF0E0E055F94D0C94202813
:104D6000BA26E026E726E026E7263E276027E72644
:104D7000B727C427803889F0823849F58091C4016B
:104D80008F70873020F58093E9008091EB0085FBE0
:104D9000882780F91092E90006C08091BC019091AB
:104DA000BD01911182609091E800977F9093E80097
:104DB0008093F1001092F1008091E8008E772DC071
:104DC000282F2D7F21F48823D1F0823059F1809152
:104DD000E80083FF0AC08091E800877F8093E800A5
:104DE0008091EB0080628093EB00AA960FB6F89456
:104DF000DEBF0FBECDBFDF91CF911F91089580918F
:104E0000C201813021F7933009F080E08093BD0129
:104E10001092E9008091E800877F8093E8000E946B
:104E2000B124D5CF8091C2018111F2CF8091C4010C
:104E30008F702FEF280F263050F68093E9002091D5
:104E4000EB0020FFE5CF933031F48091EB008062DE
:104E50008093EB00DDCF9091EB0090619093EB009D
:104E600021E030E001C0220F8A95EAF72093EA00A2
:104E70001092EA008091EB008860EACF8111A7CF01
:104E80001091C2011F778091E3008078812B80937D
:104E9000E3008091E800877F8093E8000E94B124BE
:104EA0008091E80080FFFCCF8091E30080688093D0
:104EB000E30083E0111101C082E08093BF0187CF3E
:104EC0008058823008F083CF8091C2019091C30155
:104ED0008C3D23E09207A1F583E08A838AE28983EF
:104EE0004FB7F894DE01139620E03EE051E2E32F45
:104EF000F0E050935700E49120FF03C0E295EF707B
:104F00003F5FEF708E2F90E0EA30C0F0C7968D9330
:104F10009D932F5F243159F74FBF8091E800877F21
:104F20008093E8006AE270E0CE0101960E94BE2301
:104F30008091E8008B778093E80049CFC096E7CF57
:104F40006091C4017091C501AE014F5F5F4F0E9437
:104F5000FC22BC01892B09F43ACF9091E800977F9D
:104F60009093E80089819A810E941D24E1CF8038C6
:104F700009F02DCF8091E800877F8093E800809131
:104F8000BB018093F10018CF811121CF9091C20114
:104F9000923008F01CCF8091E800877F8093E80072
:104FA0009093BB010E94B1248091BB01882331F012
:104FB00084E08093BF010E94E82109CF8091E30043
:104FC00087FDF6CF81E0F5CFCF938091BF01882395
:104FD00099F0C091E900CF708091EC0080FD0EC087
:104FE00080E0C82B1092E9008091E80083FD0E94C8
:104FF0008926CF70C093E900CF91089580E8F1CF62
:10500000991B79E004C0991F961708F0961B881F1A
:105010007A95C9F78095089597FB072E16F40094AA
:1050200007D077FD09D00E94262807FC05D03EF462
:10503000909581959F4F0895709561957F4F089544
:10504000EE0FFF1F0590F491E02D0994AA1BBB1BE6
:1050500051E107C0AA1FBB1FA617B70710F0A61B78
:10506000B70B881F991F5A95A9F780959095BC0199
:10507000CD010895F999FECF92BD81BDF89A992787
:1050800080B50895A8E1B0E042E050E00C946E28AD
:10509000262FF999FECF92BD81BDF89A019700B4F1
:1050A000021639F01FBA20BD0FB6F894FA9AF99A91
:1050B0000FBE08950396272F0E9449280E94482872
:1050C000252F0E944928242F0C9449280196272F28
:1050D0000E9449280C944828DC01CB01FC01F99975
:1050E000FECF06C0F2BDE1BDF89A319600B40D9234
:0C50F00041505040B8F70895F894FFCFED
:1050FC00FF88012808641E140A321EC92051213071
:10510C0021CC207E2101404F22CF0E800E5E0E035B
:06511C000E1C0E350E0012
:00000001FF
